:020000040000FA
:100000000C9457000C9469000C9469000C94CA017C
:100010000C94CA010C94CA010C9469000C946900F8
:100020000C9469000C9469000C9469000C946900AC
:100030000C9469000C9469000C9469000C9469009C
:100040000C9480010C9469000C9469000C94690074
:100050000C9469000C9469000C9469000C9469007C
:100060000C94D4010C9469000000000025002800C5
:100070002B00040404040404040402020202020229
:10008000030303030303010204081020408001025C
:1000900004081020010204081020000000080002DB
:1000A000010000030407000000000000000011240C
:1000B0001FBECFEFD8E0DEBFCDBF21E0A0E0B1E0B2
:1000C00001C01D92AC37B207E1F70E94EF020C9419
:1000D0003A030C94000090E0FC01E656FF4F249197
:1000E000FC01EA57FF4F3491FC01EE58FF4FE491B9
:1000F000EE23C9F0222339F0233001F1A8F4213096
:1001000019F1223029F1F0E0EE0FFF1FE859FF4FFF
:10011000A591B4918FB7F894EC91611126C03095F8
:100120003E233C938FBF08952730A9F02830C9F0B3
:10013000243049F7809180008F7D03C0809180003A
:100140008F7780938000DFCF84B58F7784BDDBCF3E
:1001500084B58F7DFBCF8091B0008F778093B00006
:10016000D2CF8091B0008F7DF9CF3E2BDACF209196
:100170002701260F3327331F21323105ECF420915C
:100180004B01FC0190E080E0243069F082E00895AA
:10019000A09127012191AC01495F5E4FA40FB52FBB
:1001A000B11D2C930196861798F380912701680F53
:1001B0006093270180E0089581E0089508958FEF0E
:1001C0009FEF08958FEF9FEF08958091000190E0D9
:1001D0009195819591090895CF93DF93CB01EA0121
:1001E000642F0E94B700CE01DF91CF910895CF9385
:1001F000DF931F92CDB7DEB7698361E0CE01019630
:100200000E94B70081E090E00F90DF91CF910895B8
:1002100090E080E008951F93CF93DF9385ED809366
:10022000BC008091030190910401A0910501B0915F
:1002300006010796A11DB11D23E0B695A7959795D8
:1002400087952A95D1F72091BC0024FD03C0109218
:100250004B0152C04091030150910401609105018E
:1002600070910601452B462B472B69F30097A1059A
:10027000B10541F025E32A95F1F700000197A109A6
:10028000B109E1CF80910201C1E0C093010188234F
:1002900099F1D091B8001091BA008091BC008A7B8E
:1002A0008093BC0060E082E10E946B0060E083E12B
:1002B0000E946B0010924B01C0934D0110924C01B3
:1002C00061E082E10E946B0061E083E10E946B00CB
:1002D0008091B9008E7F8093B9008091B9008D7FA5
:1002E0008093B90088E48093B80085E48093BC00D3
:1002F0001093BA00D093B800DF91CF911F91089569
:100300001F920F920FB60F9211242F933F938F934A
:100310009F93AF93BF938091780190917901A091C1
:100320007A01B0917B013091770123E0230F2D37C3
:1003300058F50196A11DB11D209377018093780196
:1003400090937901A0937A01B0937B01809173011E
:1003500090917401A0917501B09176010196A11D53
:10036000B11D8093730190937401A0937501B093B4
:100370007601BF91AF919F918F913F912F910F90F7
:100380000FBE0F901F90189526E8230F0296A11D0F
:10039000B11DD2CF1F920F920FB60F9211240F9062
:1003A0000FBE0F901F9018951F920F920FB60F92CD
:1003B00011242F933F934F935F936F937F938F936A
:1003C0009F93AF93BF93EF93FF938091B900887F82
:1003D000803609F44AC0F0F5883209F4A5C018F552
:1003E000803109F499C0B8F4882309F4F5C0883045
:1003F00009F492C0FF91EF91BF91AF919F918F91BE
:100400007F916F915F914F913F912F910F900FBE10
:100410000F901F901895883109F486C0803251F7EB
:1004200080934A0114C0803409F49BC040F48033A7
:10043000B9F38833F9F680934A0185ECAEC0803574
:1004400009F483C0883509F494C0883499F60E9471
:100450000B01D0CF883909F48AC038F5883729F0E4
:1004600050F4883611F0803729F683E080934B01F1
:100470001092490155C0883809F479C0803919F0C3
:10048000803809F0B7CF80914901803208F06FC001
:10049000E091490181E08E0F809349018091BB007A
:1004A000F0E0E75DFE4F80833BC0803B39F0D0F445
:1004B000803A09F477C0883A09F09CCF84E08093B1
:1004C0004B011092280110922701F0E0E0E009951D
:1004D0008091270181110FC081E080932701109244
:1004E000070109C0803C09F4A8CF883C09F4A5CFD6
:1004F000883B09F07FCFE091280181E08E0F809347
:100500002801F0E0E95FFE4F80818093BB0090916D
:1005100028018091270129C0809170018093BB0040
:1005200085EC8093BC0066CF90916F0180916E0145
:10053000981758F5E0916F0181E08E0F80936F015D
:10054000F0E0E25BFE4F8081E9CFE0916F0181E056
:100550008E0F80936F018091BB00F0E0E25BFE4F55
:10056000808390916F0180916E019817C8F285E8A1
:10057000D8CFE0916F0181E08E0F80936F01809161
:10058000BB00F0E0E25BFE4F808380914D01811162
:100590005ECF81E080934C0184EA8093BC0010928E
:1005A0004B0128CF85EC8093BC0010924B018091C9
:1005B0004901803230F4E0914901F0E0E75DFE4FFF
:1005C00010826091490170E089E291E0F0E0E0E0A2
:1005D0000995109249010ECF10924A0138CF7894B4
:1005E00084B5826084BD84B5816084BD85B5826038
:1005F00085BD85B5816085BD80916E0081608093E9
:100600006E00109281008091810082608093810051
:100610008091810081608093810080918000816061
:10062000809380008091B10084608093B1008091BC
:10063000B00081608093B00080917A0084608093E4
:100640007A0080917A00826080937A0080917A00AB
:10065000816080937A0080917A00806880937A002C
:100660001092C100C0E0D0E02097F1F30E9400009A
:08067000FBCF0895F894FFCFC1
:107E0000112484B714BE81FFF0D085E080938100F7
:107E100082E08093C00088E18093C10086E0809377
:107E2000C20080E18093C4008EE0C9D0259A86E02C
:107E300020E33CEF91E0309385002093840096BBD3
:107E4000B09BFECF1D9AA8958150A9F7CC24DD24C4
:107E500088248394B5E0AB2EA1E19A2EF3E0BF2EE7
:107E6000A2D0813461F49FD0082FAFD0023811F036
:107E7000013811F484E001C083E08DD089C08234E0
:107E800011F484E103C0853419F485E0A6D080C0E4
:107E9000853579F488D0E82EFF2485D0082F10E0AE
:107EA000102F00270E291F29000F111F8ED06801E7
:107EB0006FC0863521F484E090D080E0DECF843638
:107EC00009F040C070D06FD0082F6DD080E0C81688
:107ED00080E7D80618F4F601B7BEE895C0E0D1E017
:107EE00062D089930C17E1F7F0E0CF16F0E7DF06D8
:107EF00018F0F601B7BEE89568D007B600FCFDCFD4
:107F0000A601A0E0B1E02C9130E011968C91119780
:107F100090E0982F8827822B932B1296FA010C0160
:107F200087BEE89511244E5F5F4FF1E0A038BF0790
:107F300051F7F601A7BEE89507B600FCFDCF97BE46
:107F4000E89526C08437B1F42ED02DD0F82E2BD052
:107F50003CD0F601EF2C8F010F5F1F4F84911BD097
:107F6000EA94F801C1F70894C11CD11CFA94CF0C13
:107F7000D11C0EC0853739F428D08EE10CD085E9AC
:107F80000AD08FE07ACF813511F488E018D01DD067
:107F900080E101D065CF982F8091C00085FFFCCF94
:107FA0009093C60008958091C00087FFFCCF809118
:107FB000C00084FD01C0A8958091C6000895E0E648
:107FC000F0E098E1908380830895EDDF803219F02E
:107FD00088E0F5DFFFCF84E1DECF1F93182FE3DFCA
:107FE0001150E9F7F2DF1F91089580E0E8DFEE27F6
:047FF000FF270994CA
:027FFE00040479
:00000001FF
